{
  "_format": "hh-sol-artifact-1",
  "contractName": "Forum",
  "sourceName": "contracts/Forum.sol",
  "abi": [
    {
      "inputs": [
        {
          "internalType": "address",
          "name": "_tokenAddress",
          "type": "address"
        }
      ],
      "stateMutability": "nonpayable",
      "type": "constructor"
    },
    {
      "anonymous": false,
      "inputs": [
        {
          "components": [
            {
              "internalType": "uint256",
              "name": "answerId",
              "type": "uint256"
            },
            {
              "internalType": "uint256",
              "name": "questionId",
              "type": "uint256"
            },
            {
              "internalType": "string",
              "name": "message",
              "type": "string"
            },
            {
              "internalType": "address",
              "name": "creatorAddress",
              "type": "address"
            },
            {
              "internalType": "uint256",
              "name": "timestamp",
              "type": "uint256"
            },
            {
              "internalType": "uint256",
              "name": "upvotes",
              "type": "uint256"
            }
          ],
          "indexed": false,
          "internalType": "struct Forum.Answer",
          "name": "answer",
          "type": "tuple"
        }
      ],
      "name": "AnswerAdded",
      "type": "event"
    },
    {
      "anonymous": false,
      "inputs": [
        {
          "components": [
            {
              "internalType": "uint256",
              "name": "answerId",
              "type": "uint256"
            },
            {
              "internalType": "uint256",
              "name": "questionId",
              "type": "uint256"
            },
            {
              "internalType": "string",
              "name": "message",
              "type": "string"
            },
            {
              "internalType": "address",
              "name": "creatorAddress",
              "type": "address"
            },
            {
              "internalType": "uint256",
              "name": "timestamp",
              "type": "uint256"
            },
            {
              "internalType": "uint256",
              "name": "upvotes",
              "type": "uint256"
            }
          ],
          "indexed": false,
          "internalType": "struct Forum.Answer",
          "name": "answer",
          "type": "tuple"
        }
      ],
      "name": "AnswerUpvoted",
      "type": "event"
    },
    {
      "anonymous": false,
      "inputs": [
        {
          "components": [
            {
              "internalType": "uint256",
              "name": "questionId",
              "type": "uint256"
            },
            {
              "internalType": "string",
              "name": "message",
              "type": "string"
            },
            {
              "internalType": "address",
              "name": "creatorAddress",
              "type": "address"
            },
            {
              "internalType": "uint256",
              "name": "timestamp",
              "type": "uint256"
            }
          ],
          "indexed": false,
          "internalType": "struct Forum.Question",
          "name": "question",
          "type": "tuple"
        }
      ],
      "name": "QuestionAdded",
      "type": "event"
    },
    {
      "inputs": [],
      "name": "GoOverFlow",
      "outputs": [
        {
          "internalType": "contract IERC20",
          "name": "",
          "type": "address"
        }
      ],
      "stateMutability": "view",
      "type": "function"
    },
    {
      "inputs": [
        {
          "internalType": "uint256",
          "name": "",
          "type": "uint256"
        }
      ],
      "name": "answers",
      "outputs": [
        {
          "internalType": "uint256",
          "name": "answerId",
          "type": "uint256"
        },
        {
          "internalType": "uint256",
          "name": "questionId",
          "type": "uint256"
        },
        {
          "internalType": "string",
          "name": "message",
          "type": "string"
        },
        {
          "internalType": "address",
          "name": "creatorAddress",
          "type": "address"
        },
        {
          "internalType": "uint256",
          "name": "timestamp",
          "type": "uint256"
        },
        {
          "internalType": "uint256",
          "name": "upvotes",
          "type": "uint256"
        }
      ],
      "stateMutability": "view",
      "type": "function"
    },
    {
      "inputs": [
        {
          "internalType": "uint256",
          "name": "",
          "type": "uint256"
        },
        {
          "internalType": "uint256",
          "name": "",
          "type": "uint256"
        }
      ],
      "name": "answersPerQuestion",
      "outputs": [
        {
          "internalType": "uint256",
          "name": "",
          "type": "uint256"
        }
      ],
      "stateMutability": "view",
      "type": "function"
    },
    {
      "inputs": [
        {
          "internalType": "uint256",
          "name": "_questionId",
          "type": "uint256"
        }
      ],
      "name": "getAnswersPerQuestion",
      "outputs": [
        {
          "internalType": "uint256[]",
          "name": "",
          "type": "uint256[]"
        }
      ],
      "stateMutability": "view",
      "type": "function"
    },
    {
      "inputs": [],
      "name": "getQuestions",
      "outputs": [
        {
          "components": [
            {
              "internalType": "uint256",
              "name": "questionId",
              "type": "uint256"
            },
            {
              "internalType": "string",
              "name": "message",
              "type": "string"
            },
            {
              "internalType": "address",
              "name": "creatorAddress",
              "type": "address"
            },
            {
              "internalType": "uint256",
              "name": "timestamp",
              "type": "uint256"
            }
          ],
          "internalType": "struct Forum.Question[]",
          "name": "",
          "type": "tuple[]"
        }
      ],
      "stateMutability": "view",
      "type": "function"
    },
    {
      "inputs": [
        {
          "internalType": "uint256",
          "name": "_answerId",
          "type": "uint256"
        }
      ],
      "name": "getUpvotes",
      "outputs": [
        {
          "internalType": "uint256",
          "name": "",
          "type": "uint256"
        }
      ],
      "stateMutability": "view",
      "type": "function"
    },
    {
      "inputs": [
        {
          "internalType": "uint256",
          "name": "_questionId",
          "type": "uint256"
        },
        {
          "internalType": "string",
          "name": "_message",
          "type": "string"
        }
      ],
      "name": "postAnswer",
      "outputs": [],
      "stateMutability": "nonpayable",
      "type": "function"
    },
    {
      "inputs": [
        {
          "internalType": "string",
          "name": "_message",
          "type": "string"
        }
      ],
      "name": "postQuestion",
      "outputs": [],
      "stateMutability": "nonpayable",
      "type": "function"
    },
    {
      "inputs": [
        {
          "internalType": "uint256",
          "name": "",
          "type": "uint256"
        }
      ],
      "name": "questions",
      "outputs": [
        {
          "internalType": "uint256",
          "name": "questionId",
          "type": "uint256"
        },
        {
          "internalType": "string",
          "name": "message",
          "type": "string"
        },
        {
          "internalType": "address",
          "name": "creatorAddress",
          "type": "address"
        },
        {
          "internalType": "uint256",
          "name": "timestamp",
          "type": "uint256"
        }
      ],
      "stateMutability": "view",
      "type": "function"
    },
    {
      "inputs": [
        {
          "internalType": "uint256",
          "name": "_answerId",
          "type": "uint256"
        }
      ],
      "name": "upvoteAnswer",
      "outputs": [],
      "stateMutability": "nonpayable",
      "type": "function"
    },
    {
      "inputs": [
        {
          "internalType": "uint256",
          "name": "",
          "type": "uint256"
        },
        {
          "internalType": "address",
          "name": "",
          "type": "address"
        }
      ],
      "name": "upvoters",
      "outputs": [
        {
          "internalType": "bool",
          "name": "",
          "type": "bool"
        }
      ],
      "stateMutability": "view",
      "type": "function"
    },
    {
      "inputs": [
        {
          "internalType": "address",
          "name": "",
          "type": "address"
        }
      ],
      "name": "usersUpvoteCount",
      "outputs": [
        {
          "internalType": "uint256",
          "name": "",
          "type": "uint256"
        }
      ],
      "stateMutability": "view",
      "type": "function"
    }
  ],
  "bytecode": "0x60a06040526012600a62000014919062000155565b600162000022919062000292565b6005556012600a62000035919062000155565b600a62000043919062000292565b6006553480156200005357600080fd5b5060405162002482380380620024828339818101604052810190620000799190620000ce565b8073ffffffffffffffffffffffffffffffffffffffff1660808173ffffffffffffffffffffffffffffffffffffffff1660601b815250505062000387565b600081519050620000c8816200036d565b92915050565b600060208284031215620000e157600080fd5b6000620000f184828501620000b7565b91505092915050565b6000808291508390505b60018511156200014c5780860481111562000124576200012362000331565b5b6001851615620001345780820291505b8081029050620001448562000360565b945062000104565b94509492505050565b6000620001628262000327565b91506200016f8362000327565b92506200019e7fffffffffffffffffffffffffffffffffffffffffffffffffffffffffffffffff8484620001a6565b905092915050565b600082620001b857600190506200028b565b81620001c857600090506200028b565b8160018114620001e15760028114620001ec5762000222565b60019150506200028b565b60ff84111562000201576200020062000331565b5b8360020a9150848211156200021b576200021a62000331565b5b506200028b565b5060208310610133831016604e8410600b84101617156200025c5782820a90508381111562000256576200025562000331565b5b6200028b565b6200026b8484846001620000fa565b9250905081840481111562000285576200028462000331565b5b81810290505b9392505050565b60006200029f8262000327565b9150620002ac8362000327565b9250817fffffffffffffffffffffffffffffffffffffffffffffffffffffffffffffffff0483118215151615620002e857620002e762000331565b5b828202905092915050565b6000620003008262000307565b9050919050565b600073ffffffffffffffffffffffffffffffffffffffff82169050919050565b6000819050919050565b7f4e487b7100000000000000000000000000000000000000000000000000000000600052601160045260246000fd5b60008160011c9050919050565b6200037881620002f3565b81146200038457600080fd5b50565b60805160601c6120b9620003c960003960008181610497015281816108310152818161091e01528181610a5b01528181610b2d0152610c0901526120b96000f3fe608060405234801561001057600080fd5b50600436106100b45760003560e01c80637df88f24116100715780637df88f24146101bb57806397221ab7146101d757806398f42702146101f5578063a0376e8614610225578063be28341f14610255578063c921d66c14610285576100b4565b806317599cc5146100b957806331b1b978146100ee57806335677ad91461012157806337a0fa751461015157806362bf6ffe1461016f5780637116cad81461019f575b600080fd5b6100d360048036038101906100ce9190611388565b6102a1565b6040516100e596959493929190611d2e565b60405180910390f35b61010860048036038101906101039190611388565b610395565b6040516101189493929190611ce2565b60405180910390f35b61013b600480360381019061013691906112f1565b61047d565b6040516101489190611cc7565b60405180910390f35b610159610495565b6040516101669190611b88565b60405180910390f35b610189600480360381019061018491906113da565b6104b9565b6040516101969190611b6d565b60405180910390f35b6101b960048036038101906101b49190611343565b6104e8565b005b6101d560048036038101906101d09190611388565b61061c565b005b6101df610d52565b6040516101ec9190611b29565b60405180910390f35b61020f600480360381019061020a9190611388565b610ead565b60405161021c9190611cc7565b60405180910390f35b61023f600480360381019061023a9190611388565b610f4c565b60405161024c9190611b4b565b60405180910390f35b61026f600480360381019061026a919061146e565b610fb7565b60405161027c9190611cc7565b60405180910390f35b61029f600480360381019061029a9190611416565b610fe8565b005b600181815481106102b157600080fd5b90600052602060002090600602016000915090508060000154908060010154908060020180546102e090611f13565b80601f016020809104026020016040519081016040528092919081815260200182805461030c90611f13565b80156103595780601f1061032e57610100808354040283529160200191610359565b820191906000526020600020905b81548152906001019060200180831161033c57829003601f168201915b5050505050908060030160009054906101000a900473ffffffffffffffffffffffffffffffffffffffff16908060040154908060050154905086565b600081815481106103a557600080fd5b90600052602060002090600402016000915090508060000154908060010180546103ce90611f13565b80601f01602080910402602001604051908101604052809291908181526020018280546103fa90611f13565b80156104475780601f1061041c57610100808354040283529160200191610447565b820191906000526020600020905b81548152906001019060200180831161042a57829003601f168201915b5050505050908060020160009054906101000a900473ffffffffffffffffffffffffffffffffffffffff16908060030154905084565b60046020528060005260406000206000915090505481565b7f000000000000000000000000000000000000000000000000000000000000000081565b60036020528160005260406000206020528060005260406000206000915091509054906101000a900460ff1681565b6000808054905090506000604051806080016040528083815260200185858080601f016020809104026020016040519081016040528093929190818152602001838380828437600081840152601f19601f8201169050808301925050505050505081526020013373ffffffffffffffffffffffffffffffffffffffff16815260200142815250905060008190806001815401808255809150506001900390600052602060002090600402016000909190919091506000820151816000015560208201518160010190805190602001906105c29291906111b0565b5060408201518160020160006101000a81548173ffffffffffffffffffffffffffffffffffffffff021916908373ffffffffffffffffffffffffffffffffffffffff16021790555060608201518160030155505050505050565b80806001805490501015610665576040517f08c379a000000000000000000000000000000000000000000000000000000000815260040161065c90611ba3565b60405180910390fd5b8160018054905010156106ad576040517f08c379a00000000000000000000000000000000000000000000000000000000081526004016106a490611c23565b60405180910390fd5b600115156003600084815260200190815260200160002060003373ffffffffffffffffffffffffffffffffffffffff1673ffffffffffffffffffffffffffffffffffffffff16815260200190815260200160002060009054906101000a900460ff1615151415610752576040517f08c379a000000000000000000000000000000000000000000000000000000000815260040161074990611c03565b60405180910390fd5b3373ffffffffffffffffffffffffffffffffffffffff16600183815481106107a3577f4e487b7100000000000000000000000000000000000000000000000000000000600052603260045260246000fd5b906000526020600020906006020160030160009054906101000a900473ffffffffffffffffffffffffffffffffffffffff1673ffffffffffffffffffffffffffffffffffffffff16141561082c576040517f08c379a000000000000000000000000000000000000000000000000000000000815260040161082390611bc3565b60405180910390fd5b6005547f000000000000000000000000000000000000000000000000000000000000000073ffffffffffffffffffffffffffffffffffffffff166370a08231336040518263ffffffff1660e01b81526004016108889190611aae565b60206040518083038186803b1580156108a057600080fd5b505afa1580156108b4573d6000803e3d6000fd5b505050506040513d601f19601f820116820180604052508101906108d891906113b1565b1015610919576040517f08c379a000000000000000000000000000000000000000000000000000000000815260040161091090611c63565b60405180910390fd5b6005547f000000000000000000000000000000000000000000000000000000000000000073ffffffffffffffffffffffffffffffffffffffff1663dd62ed3e33306040518363ffffffff1660e01b8152600401610977929190611ac9565b60206040518083038186803b15801561098f57600080fd5b505afa1580156109a3573d6000803e3d6000fd5b505050506040513d601f19601f820116820180604052508101906109c791906113b1565b1015610a08576040517f08c379a00000000000000000000000000000000000000000000000000000000081526004016109ff90611be3565b60405180910390fd5b600060018381548110610a44577f4e487b7100000000000000000000000000000000000000000000000000000000600052603260045260246000fd5b9060005260206000209060060201905060006006547f000000000000000000000000000000000000000000000000000000000000000073ffffffffffffffffffffffffffffffffffffffff166370a082318460030160009054906101000a900473ffffffffffffffffffffffffffffffffffffffff166040518263ffffffff1660e01b8152600401610ad69190611aae565b60206040518083038186803b158015610aee57600080fd5b505afa158015610b02573d6000803e3d6000fd5b505050506040513d601f19601f82011682018060405250810190610b2691906113b1565b10610c07577f000000000000000000000000000000000000000000000000000000000000000073ffffffffffffffffffffffffffffffffffffffff166323b872dd338460030160009054906101000a900473ffffffffffffffffffffffffffffffffffffffff166005546040518463ffffffff1660e01b8152600401610bae93929190611af2565b602060405180830381600087803b158015610bc857600080fd5b505af1158015610bdc573d6000803e3d6000fd5b505050506040513d601f19601f82011682018060405250810190610c00919061131a565b9050610cbb565b7f000000000000000000000000000000000000000000000000000000000000000073ffffffffffffffffffffffffffffffffffffffff166323b872dd33306005546040518463ffffffff1660e01b8152600401610c6693929190611af2565b602060405180830381600087803b158015610c8057600080fd5b505af1158015610c94573d6000803e3d6000fd5b505050506040513d601f19601f82011682018060405250810190610cb8919061131a565b90505b80610cfb576040517f08c379a0000000000000000000000000000000000000000000000000000000008152600401610cf290611c43565b60405180910390fd5b816005016000815480929190610d1090611f79565b91905055507f98bd8cfe393c82da860f836f95ba3ed881b69c8a3b08fd44fc37a9767dc6616a82604051610d449190611ca5565b60405180910390a150505050565b60606000805480602002602001604051908101604052809291908181526020016000905b82821015610ea4578382906000526020600020906004020160405180608001604052908160008201548152602001600182018054610db390611f13565b80601f0160208091040260200160405190810160405280929190818152602001828054610ddf90611f13565b8015610e2c5780601f10610e0157610100808354040283529160200191610e2c565b820191906000526020600020905b815481529060010190602001808311610e0f57829003601f168201915b505050505081526020016002820160009054906101000a900473ffffffffffffffffffffffffffffffffffffffff1673ffffffffffffffffffffffffffffffffffffffff1673ffffffffffffffffffffffffffffffffffffffff16815260200160038201548152505081526020019060010190610d76565b50505050905090565b600081806001805490501015610ef8576040517f08c379a0000000000000000000000000000000000000000000000000000000008152600401610eef90611ba3565b60405180910390fd5b60018381548110610f32577f4e487b7100000000000000000000000000000000000000000000000000000000600052603260045260246000fd5b906000526020600020906006020160050154915050919050565b606060026000838152602001908152602001600020805480602002602001604051908101604052809291908181526020018280548015610fab57602002820191906000526020600020905b815481526020019060010190808311610f97575b50505050509050919050565b60026020528160005260406000208181548110610fd357600080fd5b90600052602060002001600091509150505481565b6000600180549050905060006040518060c0016040528083815260200186815260200185858080601f016020809104026020016040519081016040528093929190818152602001838380828437600081840152601f19601f8201169050808301925050505050505081526020013373ffffffffffffffffffffffffffffffffffffffff168152602001428152602001600081525090506001819080600181540180825580915050600190039060005260206000209060060201600090919091909150600082015181600001556020820151816001015560408201518160020190805190602001906110da9291906111b0565b5060608201518160030160006101000a81548173ffffffffffffffffffffffffffffffffffffffff021916908373ffffffffffffffffffffffffffffffffffffffff1602179055506080820151816004015560a082015181600501555050600260008681526020019081526020016000208290806001815401808255809150506001900390600052602060002001600090919091909150557f1642cd98fed327bbc349114d4cbcff3fd05420c5c1c8c75f9e7b573a9819211b816040516111a19190611c83565b60405180910390a15050505050565b8280546111bc90611f13565b90600052602060002090601f0160209004810192826111de5760008555611225565b82601f106111f757805160ff1916838001178555611225565b82800160010185558215611225579182015b82811115611224578251825591602001919060010190611209565b5b5090506112329190611236565b5090565b5b8082111561124f576000816000905550600101611237565b5090565b6000813590506112628161203e565b92915050565b60008151905061127781612055565b92915050565b60008083601f84011261128f57600080fd5b8235905067ffffffffffffffff8111156112a857600080fd5b6020830191508360018202830111156112c057600080fd5b9250929050565b6000813590506112d68161206c565b92915050565b6000815190506112eb8161206c565b92915050565b60006020828403121561130357600080fd5b600061131184828501611253565b91505092915050565b60006020828403121561132c57600080fd5b600061133a84828501611268565b91505092915050565b6000806020838503121561135657600080fd5b600083013567ffffffffffffffff81111561137057600080fd5b61137c8582860161127d565b92509250509250929050565b60006020828403121561139a57600080fd5b60006113a8848285016112c7565b91505092915050565b6000602082840312156113c357600080fd5b60006113d1848285016112dc565b91505092915050565b600080604083850312156113ed57600080fd5b60006113fb858286016112c7565b925050602061140c85828601611253565b9150509250929050565b60008060006040848603121561142b57600080fd5b6000611439868287016112c7565b935050602084013567ffffffffffffffff81111561145657600080fd5b6114628682870161127d565b92509250509250925092565b6000806040838503121561148157600080fd5b600061148f858286016112c7565b92505060206114a0858286016112c7565b9150509250929050565b60006114b68383611a2d565b905092915050565b60006114ca8383611a90565b60208301905092915050565b6114df81611e74565b82525050565b6114ee81611e74565b82525050565b60006114ff82611dcb565b6115098185611e06565b93508360208202850161151b85611d96565b8060005b85811015611557578484038952815161153885826114aa565b945061154383611dec565b925060208a0199505060018101905061151f565b50829750879550505050505092915050565b600061157482611dd6565b61157e8185611e17565b935061158983611da6565b8060005b838110156115ba5781516115a188826114be565b97506115ac83611df9565b92505060018101905061158d565b5085935050505092915050565b6115d081611e86565b82525050565b6115df81611ebc565b82525050565b60006115f082611de1565b6115fa8185611e28565b935061160a818560208601611ee0565b61161381612020565b840191505092915050565b600061162982611de1565b6116338185611e39565b9350611643818560208601611ee0565b61164c81612020565b840191505092915050565b6000815461166481611f13565b61166e8186611e28565b94506001821660008114611689576001811461169b576116ce565b60ff19831686526020860193506116ce565b6116a485611db6565b60005b838110156116c6578154818901526001820191506020810190506116a7565b808801955050505b50505092915050565b60006116e4601683611e39565b91507f416e7377657220646f6573206e6f7420657869737421000000000000000000006000830152602082019050919050565b6000611724601983611e39565b91507f43616e6e6f74207570766f7465206f776e20616e7377657221000000000000006000830152602082019050919050565b6000611764602a83611e39565b91507f4163636f756e7420646964206e6f7420617070726f766520746f6b656e20737560008301527f6363657366756c6c7921000000000000000000000000000000000000000000006020830152604082019050919050565b60006117ca602183611e39565b91507f5573657220616c7265616479207570766f746564207468697320616e7377657260008301527f21000000000000000000000000000000000000000000000000000000000000006020830152604082019050919050565b6000611830601683611e39565b91507f416e7377657220646f6573206e6f7420657869737473000000000000000000006000830152602082019050919050565b6000611870601983611e39565b91507f546f6b656e207472616e73666572206973206661696c656421000000000000006000830152602082019050919050565b60006118b0601e83611e39565b91507f557365722068617320696e73756666696369656e742062616c616e63652100006000830152602082019050919050565b600060c0830160008301516118fb6000860182611a90565b50602083015161190e6020860182611a90565b506040830151848203604086015261192682826115e5565b915050606083015161193b60608601826114d6565b50608083015161194e6080860182611a90565b5060a083015161196160a0860182611a90565b508091505092915050565b600060c08301600080840154905061198381611f5f565b6119906000870182611a90565b50600184015490506119a181611f5f565b6119ae6020870182611a90565b506002840185830360408701526119c58382611657565b925050600384015490506119d881611f45565b6119e560608701826114d6565b50600484015490506119f681611f5f565b611a036080870182611a90565b5060058401549050611a1481611f5f565b611a2160a0870182611a90565b50819250505092915050565b6000608083016000830151611a456000860182611a90565b5060208301518482036020860152611a5d82826115e5565b9150506040830151611a7260408601826114d6565b506060830151611a856060860182611a90565b508091505092915050565b611a9981611eb2565b82525050565b611aa881611eb2565b82525050565b6000602082019050611ac360008301846114e5565b92915050565b6000604082019050611ade60008301856114e5565b611aeb60208301846114e5565b9392505050565b6000606082019050611b0760008301866114e5565b611b1460208301856114e5565b611b216040830184611a9f565b949350505050565b60006020820190508181036000830152611b4381846114f4565b905092915050565b60006020820190508181036000830152611b658184611569565b905092915050565b6000602082019050611b8260008301846115c7565b92915050565b6000602082019050611b9d60008301846115d6565b92915050565b60006020820190508181036000830152611bbc816116d7565b9050919050565b60006020820190508181036000830152611bdc81611717565b9050919050565b60006020820190508181036000830152611bfc81611757565b9050919050565b60006020820190508181036000830152611c1c816117bd565b9050919050565b60006020820190508181036000830152611c3c81611823565b9050919050565b60006020820190508181036000830152611c5c81611863565b9050919050565b60006020820190508181036000830152611c7c816118a3565b9050919050565b60006020820190508181036000830152611c9d81846118e3565b905092915050565b60006020820190508181036000830152611cbf818461196c565b905092915050565b6000602082019050611cdc6000830184611a9f565b92915050565b6000608082019050611cf76000830187611a9f565b8181036020830152611d09818661161e565b9050611d1860408301856114e5565b611d256060830184611a9f565b95945050505050565b600060c082019050611d436000830189611a9f565b611d506020830188611a9f565b8181036040830152611d62818761161e565b9050611d7160608301866114e5565b611d7e6080830185611a9f565b611d8b60a0830184611a9f565b979650505050505050565b6000819050602082019050919050565b6000819050602082019050919050565b60008190508160005260206000209050919050565b600081519050919050565b600081519050919050565b600081519050919050565b6000602082019050919050565b6000602082019050919050565b600082825260208201905092915050565b600082825260208201905092915050565b600082825260208201905092915050565b600082825260208201905092915050565b600073ffffffffffffffffffffffffffffffffffffffff82169050919050565b6000819050919050565b6000611e7f82611e92565b9050919050565b60008115159050919050565b600073ffffffffffffffffffffffffffffffffffffffff82169050919050565b6000819050919050565b6000611ec782611ece565b9050919050565b6000611ed982611e92565b9050919050565b60005b83811015611efe578082015181840152602081019050611ee3565b83811115611f0d576000848401525b50505050565b60006002820490506001821680611f2b57607f821691505b60208210811415611f3f57611f3e611ff1565b5b50919050565b6000611f58611f5383612031565b611e4a565b9050919050565b6000611f72611f6d83612031565b611e6a565b9050919050565b6000611f8482611eb2565b91507fffffffffffffffffffffffffffffffffffffffffffffffffffffffffffffffff821415611fb757611fb6611fc2565b5b600182019050919050565b7f4e487b7100000000000000000000000000000000000000000000000000000000600052601160045260246000fd5b7f4e487b7100000000000000000000000000000000000000000000000000000000600052602260045260246000fd5b6000601f19601f8301169050919050565b60008160001c9050919050565b61204781611e74565b811461205257600080fd5b50565b61205e81611e86565b811461206957600080fd5b50565b61207581611eb2565b811461208057600080fd5b5056fea2646970667358221220dc9ec421b59982417de72e775afebd2221e6e00b10d3ed0b299b4ffc02062cd164736f6c63430008000033",
  "linkReferences": {},
  "deployedLinkReferences": {}
}