{
  "_format": "hh-sol-artifact-1",
  "contractName": "AMM",
  "sourceName": "contracts/AMM.sol",
  "abi": [
    {
      "inputs": [
        {
          "internalType": "contract IERC20",
          "name": "_matic",
          "type": "address"
        },
        {
          "internalType": "contract IERC20",
          "name": "_goflow",
          "type": "address"
        }
      ],
      "stateMutability": "nonpayable",
      "type": "constructor"
    },
    {
      "inputs": [
        {
          "internalType": "uint256",
          "name": "_amountMatic",
          "type": "uint256"
        }
      ],
      "name": "getEquivalentGoflowEstimate",
      "outputs": [
        {
          "internalType": "uint256",
          "name": "reqGoflow",
          "type": "uint256"
        }
      ],
      "stateMutability": "view",
      "type": "function"
    },
    {
      "inputs": [
        {
          "internalType": "uint256",
          "name": "_amountGoflow",
          "type": "uint256"
        }
      ],
      "name": "getEquivalentMaticEstimate",
      "outputs": [
        {
          "internalType": "uint256",
          "name": "reqMatic",
          "type": "uint256"
        }
      ],
      "stateMutability": "view",
      "type": "function"
    },
    {
      "inputs": [
        {
          "internalType": "address",
          "name": "user",
          "type": "address"
        }
      ],
      "name": "getMyHoldings",
      "outputs": [
        {
          "internalType": "uint256",
          "name": "maticAmount",
          "type": "uint256"
        },
        {
          "internalType": "uint256",
          "name": "goflowAmount",
          "type": "uint256"
        },
        {
          "internalType": "uint256",
          "name": "myShare",
          "type": "uint256"
        }
      ],
      "stateMutability": "view",
      "type": "function"
    },
    {
      "inputs": [],
      "name": "getPoolDetails",
      "outputs": [
        {
          "internalType": "uint256",
          "name": "maticAmount",
          "type": "uint256"
        },
        {
          "internalType": "uint256",
          "name": "goflowAmount",
          "type": "uint256"
        },
        {
          "internalType": "uint256",
          "name": "ammShares",
          "type": "uint256"
        }
      ],
      "stateMutability": "view",
      "type": "function"
    },
    {
      "inputs": [
        {
          "internalType": "uint256",
          "name": "_amountGoflow",
          "type": "uint256"
        }
      ],
      "name": "getSwapGoflowEstimate",
      "outputs": [
        {
          "internalType": "uint256",
          "name": "amountMatic",
          "type": "uint256"
        }
      ],
      "stateMutability": "view",
      "type": "function"
    },
    {
      "inputs": [
        {
          "internalType": "uint256",
          "name": "_amountMatic",
          "type": "uint256"
        }
      ],
      "name": "getSwapMaticEstimate",
      "outputs": [
        {
          "internalType": "uint256",
          "name": "amountGoflow",
          "type": "uint256"
        }
      ],
      "stateMutability": "view",
      "type": "function"
    },
    {
      "inputs": [
        {
          "internalType": "uint256",
          "name": "_share",
          "type": "uint256"
        }
      ],
      "name": "getWithdrawEstimate",
      "outputs": [
        {
          "internalType": "uint256",
          "name": "amountMatic",
          "type": "uint256"
        },
        {
          "internalType": "uint256",
          "name": "amountGoflow",
          "type": "uint256"
        }
      ],
      "stateMutability": "view",
      "type": "function"
    },
    {
      "inputs": [
        {
          "internalType": "uint256",
          "name": "_amountMatic",
          "type": "uint256"
        },
        {
          "internalType": "uint256",
          "name": "_amountGoflow",
          "type": "uint256"
        }
      ],
      "name": "provide",
      "outputs": [
        {
          "internalType": "uint256",
          "name": "share",
          "type": "uint256"
        }
      ],
      "stateMutability": "nonpayable",
      "type": "function"
    },
    {
      "inputs": [
        {
          "internalType": "uint256",
          "name": "_amountGoflow",
          "type": "uint256"
        }
      ],
      "name": "swapGoflow",
      "outputs": [
        {
          "internalType": "uint256",
          "name": "amountMatic",
          "type": "uint256"
        }
      ],
      "stateMutability": "nonpayable",
      "type": "function"
    },
    {
      "inputs": [
        {
          "internalType": "uint256",
          "name": "_amountMatic",
          "type": "uint256"
        }
      ],
      "name": "swapMatic",
      "outputs": [
        {
          "internalType": "uint256",
          "name": "amountGoflow",
          "type": "uint256"
        }
      ],
      "stateMutability": "nonpayable",
      "type": "function"
    },
    {
      "inputs": [
        {
          "internalType": "uint256",
          "name": "_share",
          "type": "uint256"
        }
      ],
      "name": "withdraw",
      "outputs": [
        {
          "internalType": "uint256",
          "name": "amountMatic",
          "type": "uint256"
        },
        {
          "internalType": "uint256",
          "name": "amountGoflow",
          "type": "uint256"
        }
      ],
      "stateMutability": "nonpayable",
      "type": "function"
    }
  ],
  "bytecode": "0x60c06040523480156200001157600080fd5b5060405162002199380380620021998339818101604052810190620000379190620000c4565b8173ffffffffffffffffffffffffffffffffffffffff1660808173ffffffffffffffffffffffffffffffffffffffff1660601b815250508073ffffffffffffffffffffffffffffffffffffffff1660a08173ffffffffffffffffffffffffffffffffffffffff1660601b81525050505062000167565b600081519050620000be816200014d565b92915050565b60008060408385031215620000d857600080fd5b6000620000e885828601620000ad565b9250506020620000fb85828601620000ad565b9150509250929050565b600062000112826200012d565b9050919050565b6000620001268262000105565b9050919050565b600073ffffffffffffffffffffffffffffffffffffffff82169050919050565b620001588162000119565b81146200016457600080fd5b50565b60805160601c60a05160601c611fab620001ee6000396000818161053601528181610aee01528181610c8301528181610dbe015281816110870152818161134b0152611605015260008181610488015281816107e40152818161092001528181610a0c01528181610ea001528181610f570152818161129b015261155a0152611fab6000f3fe608060405234801561001057600080fd5b50600436106100a95760003560e01c8063c9fc4d5811610071578063c9fc4d5814610190578063e184e6cb146101c0578063e20b2547146101f0578063e8c3c54f14610220578063ed6793a514610250578063f711c4e914610280576100a9565b80632e1a7d4d146100ae578063452ff0b9146100df578063581367ac1461010f578063aca34c111461013f578063b32440411461015f575b600080fd5b6100c860048036038101906100c3919061179d565b6102b2565b6040516100d6929190611cda565b60405180910390f35b6100f960048036038101906100f4919061179d565b6105e8565b6040516101069190611cbf565b60405180910390f35b6101296004803603810190610124919061179d565b610650565b6040516101369190611cbf565b60405180910390f35b6101476106b8565b60405161015693929190611d03565b60405180910390f35b6101796004803603810190610174919061179d565b6106d1565b604051610187929190611cda565b60405180910390f35b6101aa60048036038101906101a5919061179d565b61079c565b6040516101b79190611cbf565b60405180910390f35b6101da60048036038101906101d5919061179d565b610ba1565b6040516101e79190611cbf565b60405180910390f35b61020a6004803603810190610205919061179d565b610c3b565b6040516102179190611cbf565b60405180910390f35b61023a600480360381019061023591906117ef565b610f53565b6040516102479190611cbf565b60405180910390f35b61026a6004803603810190610265919061179d565b6114b9565b6040516102779190611cbf565b60405180910390f35b61029a6004803603810190610295919061174b565b611553565b6040516102a993929190611d03565b60405180910390f35b60008060008054116102f9576040517f08c379a00000000000000000000000000000000000000000000000000000000081526004016102f090611b9f565b60405180910390fd5b826000811161033d576040517f08c379a000000000000000000000000000000000000000000000000000000000815260040161033490611c9f565b60405180910390fd5b600460003373ffffffffffffffffffffffffffffffffffffffff1673ffffffffffffffffffffffffffffffffffffffff168152602001908152602001600020548111156103bf576040517f08c379a00000000000000000000000000000000000000000000000000000000081526004016103b690611c1f565b60405180910390fd5b6103c8846106d1565b809350819450505083600460003373ffffffffffffffffffffffffffffffffffffffff1673ffffffffffffffffffffffffffffffffffffffff168152602001908152602001600020600082825461041f9190611e2c565b92505081905550836000808282546104379190611e2c565b9250508190555082600160008282546104509190611e2c565b9250508190555081600260008282546104699190611e2c565b925050819055506002546001546104809190611dd2565b6003819055507f000000000000000000000000000000000000000000000000000000000000000073ffffffffffffffffffffffffffffffffffffffff1663a9059cbb33856040518363ffffffff1660e01b81526004016104e1929190611b76565b602060405180830381600087803b1580156104fb57600080fd5b505af115801561050f573d6000803e3d6000fd5b505050506040513d601f19601f820116820180604052508101906105339190611774565b507f000000000000000000000000000000000000000000000000000000000000000073ffffffffffffffffffffffffffffffffffffffff1663a9059cbb33846040518363ffffffff1660e01b815260040161058f929190611b76565b602060405180830381600087803b1580156105a957600080fd5b505af11580156105bd573d6000803e3d6000fd5b505050506040513d601f19601f820116820180604052508101906105e19190611774565b5050915091565b6000806000541161062e576040517f08c379a000000000000000000000000000000000000000000000000000000000815260040161062590611b9f565b60405180910390fd5b6002548261063c9190611da1565b6001546106499190611dd2565b9050919050565b60008060005411610696576040517f08c379a000000000000000000000000000000000000000000000000000000000815260040161068d90611b9f565b60405180910390fd5b600154826106a49190611da1565b6002546106b19190611dd2565b9050919050565b6000806000600154925060025491506000549050909192565b6000806000805411610718576040517f08c379a000000000000000000000000000000000000000000000000000000000815260040161070f90611b9f565b60405180910390fd5b60005483111561075d576040517f08c379a000000000000000000000000000000000000000000000000000000000815260040161075490611bff565b60405180910390fd5b6000546001548461076e9190611dd2565b6107789190611da1565b91506000546002548461078b9190611dd2565b6107959190611da1565b9050915091565b600080600054116107e2576040517f08c379a00000000000000000000000000000000000000000000000000000000081526004016107d990611b9f565b60405180910390fd5b7f00000000000000000000000000000000000000000000000000000000000000008260008111610847576040517f08c379a000000000000000000000000000000000000000000000000000000000815260040161083e90611c7f565b60405180910390fd5b8173ffffffffffffffffffffffffffffffffffffffff166370a08231336040518263ffffffff1660e01b81526004016108809190611afb565b60206040518083038186803b15801561089857600080fd5b505afa1580156108ac573d6000803e3d6000fd5b505050506040513d601f19601f820116820180604052508101906108d091906117c6565b811115610912576040517f08c379a000000000000000000000000000000000000000000000000000000000815260040161090990611c3f565b60405180910390fd5b61091b84610ba1565b9250837f000000000000000000000000000000000000000000000000000000000000000073ffffffffffffffffffffffffffffffffffffffff1663dd62ed3e33306040518363ffffffff1660e01b8152600401610979929190611b16565b60206040518083038186803b15801561099157600080fd5b505afa1580156109a5573d6000803e3d6000fd5b505050506040513d601f19601f820116820180604052508101906109c991906117c6565b1015610a0a576040517f08c379a0000000000000000000000000000000000000000000000000000000008152600401610a0190611bbf565b60405180910390fd5b7f000000000000000000000000000000000000000000000000000000000000000073ffffffffffffffffffffffffffffffffffffffff166323b872dd3330876040518463ffffffff1660e01b8152600401610a6793929190611b3f565b602060405180830381600087803b158015610a8157600080fd5b505af1158015610a95573d6000803e3d6000fd5b505050506040513d601f19601f82011682018060405250810190610ab99190611774565b508360016000828254610acc9190611d4b565b925050819055508260026000828254610ae59190611e2c565b925050819055507f000000000000000000000000000000000000000000000000000000000000000073ffffffffffffffffffffffffffffffffffffffff1663a9059cbb33856040518363ffffffff1660e01b8152600401610b47929190611b76565b602060405180830381600087803b158015610b6157600080fd5b505af1158015610b75573d6000803e3d6000fd5b505050506040513d601f19601f82011682018060405250810190610b999190611774565b505050919050565b60008060005411610be7576040517f08c379a0000000000000000000000000000000000000000000000000000000008152600401610bde90611b9f565b60405180910390fd5b600082600154610bf79190611d4b565b9050600081600354610c099190611da1565b905080600254610c199190611e2c565b9250600254831415610c34578280610c3090611ea8565b9350505b5050919050565b60008060005411610c81576040517f08c379a0000000000000000000000000000000000000000000000000000000008152600401610c7890611b9f565b60405180910390fd5b7f00000000000000000000000000000000000000000000000000000000000000008260008111610ce6576040517f08c379a0000000000000000000000000000000000000000000000000000000008152600401610cdd90611c7f565b60405180910390fd5b8173ffffffffffffffffffffffffffffffffffffffff166370a08231336040518263ffffffff1660e01b8152600401610d1f9190611afb565b60206040518083038186803b158015610d3757600080fd5b505afa158015610d4b573d6000803e3d6000fd5b505050506040513d601f19601f82011682018060405250810190610d6f91906117c6565b811115610db1576040517f08c379a0000000000000000000000000000000000000000000000000000000008152600401610da890611c3f565b60405180910390fd5b610dba846114b9565b92507f000000000000000000000000000000000000000000000000000000000000000073ffffffffffffffffffffffffffffffffffffffff166323b872dd3330876040518463ffffffff1660e01b8152600401610e1993929190611b3f565b602060405180830381600087803b158015610e3357600080fd5b505af1158015610e47573d6000803e3d6000fd5b505050506040513d601f19601f82011682018060405250810190610e6b9190611774565b508360026000828254610e7e9190611d4b565b925050819055508260016000828254610e979190611e2c565b925050819055507f000000000000000000000000000000000000000000000000000000000000000073ffffffffffffffffffffffffffffffffffffffff1663a9059cbb33856040518363ffffffff1660e01b8152600401610ef9929190611b76565b602060405180830381600087803b158015610f1357600080fd5b505af1158015610f27573d6000803e3d6000fd5b505050506040513d601f19601f82011682018060405250810190610f4b9190611774565b505050919050565b60007f00000000000000000000000000000000000000000000000000000000000000008360008111610fba576040517f08c379a0000000000000000000000000000000000000000000000000000000008152600401610fb190611c7f565b60405180910390fd5b8173ffffffffffffffffffffffffffffffffffffffff166370a08231336040518263ffffffff1660e01b8152600401610ff39190611afb565b60206040518083038186803b15801561100b57600080fd5b505afa15801561101f573d6000803e3d6000fd5b505050506040513d601f19601f8201168201806040525081019061104391906117c6565b811115611085576040517f08c379a000000000000000000000000000000000000000000000000000000000815260040161107c90611c3f565b60405180910390fd5b7f000000000000000000000000000000000000000000000000000000000000000084600081116110ea576040517f08c379a00000000000000000000000000000000000000000000000000000000081526004016110e190611c7f565b60405180910390fd5b8173ffffffffffffffffffffffffffffffffffffffff166370a08231336040518263ffffffff1660e01b81526004016111239190611afb565b60206040518083038186803b15801561113b57600080fd5b505afa15801561114f573d6000803e3d6000fd5b505050506040513d601f19601f8201168201806040525081019061117391906117c6565b8111156111b5576040517f08c379a00000000000000000000000000000000000000000000000000000000081526004016111ac90611c3f565b60405180910390fd5b6000805414156111d05768056bc75e2d631000009450611256565b6000600154886111e09190611da1565b6000546111ed9190611dd2565b90506000600254886111ff9190611da1565b60005461120c9190611dd2565b9050808214611250576040517f08c379a000000000000000000000000000000000000000000000000000000000815260040161124790611c5f565b60405180910390fd5b81965050505b60008511611299576040517f08c379a000000000000000000000000000000000000000000000000000000000815260040161129090611bdf565b60405180910390fd5b7f000000000000000000000000000000000000000000000000000000000000000073ffffffffffffffffffffffffffffffffffffffff166323b872dd33308a6040518463ffffffff1660e01b81526004016112f693929190611b3f565b602060405180830381600087803b15801561131057600080fd5b505af1158015611324573d6000803e3d6000fd5b505050506040513d601f19601f820116820180604052508101906113489190611774565b507f000000000000000000000000000000000000000000000000000000000000000073ffffffffffffffffffffffffffffffffffffffff166323b872dd3330896040518463ffffffff1660e01b81526004016113a693929190611b3f565b602060405180830381600087803b1580156113c057600080fd5b505af11580156113d4573d6000803e3d6000fd5b505050506040513d601f19601f820116820180604052508101906113f89190611774565b50866001600082825461140b9190611d4b565b9250508190555085600260008282546114249190611d4b565b9250508190555060025460015461143b9190611dd2565b600381905550846000808282546114529190611d4b565b9250508190555084600460003373ffffffffffffffffffffffffffffffffffffffff1673ffffffffffffffffffffffffffffffffffffffff16815260200190815260200160002060008282546114a89190611d4b565b925050819055505050505092915050565b600080600054116114ff576040517f08c379a00000000000000000000000000000000000000000000000000000000081526004016114f690611b9f565b60405180910390fd5b60008260025461150f9190611d4b565b90506000816003546115219190611da1565b9050806001546115319190611e2c565b925060015483141561154c57828061154890611ea8565b9350505b5050919050565b60008060007f000000000000000000000000000000000000000000000000000000000000000073ffffffffffffffffffffffffffffffffffffffff166370a08231856040518263ffffffff1660e01b81526004016115b19190611afb565b60206040518083038186803b1580156115c957600080fd5b505afa1580156115dd573d6000803e3d6000fd5b505050506040513d601f19601f8201168201806040525081019061160191906117c6565b92507f000000000000000000000000000000000000000000000000000000000000000073ffffffffffffffffffffffffffffffffffffffff166370a08231856040518263ffffffff1660e01b815260040161165c9190611afb565b60206040518083038186803b15801561167457600080fd5b505afa158015611688573d6000803e3d6000fd5b505050506040513d601f19601f820116820180604052508101906116ac91906117c6565b9150600460008573ffffffffffffffffffffffffffffffffffffffff1673ffffffffffffffffffffffffffffffffffffffff1681526020019081526020016000205490509193909250565b60008135905061170681611f30565b92915050565b60008151905061171b81611f47565b92915050565b60008135905061173081611f5e565b92915050565b60008151905061174581611f5e565b92915050565b60006020828403121561175d57600080fd5b600061176b848285016116f7565b91505092915050565b60006020828403121561178657600080fd5b60006117948482850161170c565b91505092915050565b6000602082840312156117af57600080fd5b60006117bd84828501611721565b91505092915050565b6000602082840312156117d857600080fd5b60006117e684828501611736565b91505092915050565b6000806040838503121561180257600080fd5b600061181085828601611721565b925050602061182185828601611721565b9150509250929050565b61183481611e60565b82525050565b6000611847600e83611d3a565b91507f5a65726f204c69717569646974790000000000000000000000000000000000006000830152602082019050919050565b6000611887601683611d3a565b91507f496e73756666696369656e7420616c6c6f77616e6365000000000000000000006000830152602082019050919050565b60006118c7603183611d3a565b91507f41737365742076616c7565206c657373207468616e207468726573686f6c642060008301527f666f7220636f6e747269627574696f6e210000000000000000000000000000006020830152604082019050919050565b600061192d602483611d3a565b91507f53686172652073686f756c64206265206c657373207468616e20746f74616c5360008301527f68617265000000000000000000000000000000000000000000000000000000006020830152604082019050919050565b6000611993601983611d3a565b91507f496e73756666696369656e7420736861726520616d6f756e74000000000000006000830152602082019050919050565b60006119d3601383611d3a565b91507f496e73756666696369656e7420616d6f756e74000000000000000000000000006000830152602082019050919050565b6000611a13602a83611d3a565b91507f4571756976616c656e742076616c7565206f6620746f6b656e73206e6f74207060008301527f726f76696465642e2e2e000000000000000000000000000000000000000000006020830152604082019050919050565b6000611a79601683611d3a565b91507f416d6f756e742063616e6e6f74206265207a65726f21000000000000000000006000830152602082019050919050565b6000611ab9601c83611d3a565b91507f536861726520616d6f756e742063616e6e6f74206265207a65726f21000000006000830152602082019050919050565b611af581611e9e565b82525050565b6000602082019050611b10600083018461182b565b92915050565b6000604082019050611b2b600083018561182b565b611b38602083018461182b565b9392505050565b6000606082019050611b54600083018661182b565b611b61602083018561182b565b611b6e6040830184611aec565b949350505050565b6000604082019050611b8b600083018561182b565b611b986020830184611aec565b9392505050565b60006020820190508181036000830152611bb88161183a565b9050919050565b60006020820190508181036000830152611bd88161187a565b9050919050565b60006020820190508181036000830152611bf8816118ba565b9050919050565b60006020820190508181036000830152611c1881611920565b9050919050565b60006020820190508181036000830152611c3881611986565b9050919050565b60006020820190508181036000830152611c58816119c6565b9050919050565b60006020820190508181036000830152611c7881611a06565b9050919050565b60006020820190508181036000830152611c9881611a6c565b9050919050565b60006020820190508181036000830152611cb881611aac565b9050919050565b6000602082019050611cd46000830184611aec565b92915050565b6000604082019050611cef6000830185611aec565b611cfc6020830184611aec565b9392505050565b6000606082019050611d186000830186611aec565b611d256020830185611aec565b611d326040830184611aec565b949350505050565b600082825260208201905092915050565b6000611d5682611e9e565b9150611d6183611e9e565b9250827fffffffffffffffffffffffffffffffffffffffffffffffffffffffffffffffff03821115611d9657611d95611ed2565b5b828201905092915050565b6000611dac82611e9e565b9150611db783611e9e565b925082611dc757611dc6611f01565b5b828204905092915050565b6000611ddd82611e9e565b9150611de883611e9e565b9250817fffffffffffffffffffffffffffffffffffffffffffffffffffffffffffffffff0483118215151615611e2157611e20611ed2565b5b828202905092915050565b6000611e3782611e9e565b9150611e4283611e9e565b925082821015611e5557611e54611ed2565b5b828203905092915050565b6000611e6b82611e7e565b9050919050565b60008115159050919050565b600073ffffffffffffffffffffffffffffffffffffffff82169050919050565b6000819050919050565b6000611eb382611e9e565b91506000821415611ec757611ec6611ed2565b5b600182039050919050565b7f4e487b7100000000000000000000000000000000000000000000000000000000600052601160045260246000fd5b7f4e487b7100000000000000000000000000000000000000000000000000000000600052601260045260246000fd5b611f3981611e60565b8114611f4457600080fd5b50565b611f5081611e72565b8114611f5b57600080fd5b50565b611f6781611e9e565b8114611f7257600080fd5b5056fea264697066735822122033a4d05d4cb3a8356e90ce178614f1744a1da8daa537fe0b8cf8d67072cc992f64736f6c63430008000033",
  "linkReferences": {},
  "deployedLinkReferences": {}
}